:020000040800F2
:1000000000280020391B0008011900080719000802
:100010000D19000813190008191900080000000044
:100020000000000000000000000000001F19000890
:100030002B190008000000003719000843190008B8
:10004000811B0008811B0008811B0008811B000820
:10005000811B0008811B0008811B0008811B000810
:10006000811B0008811B0008811B0008811B000800
:10007000811B0008811B0008811B0008811B0008F0
:10008000811B0008811B0008811B0008811B0008E0
:10009000811B0008811B0008811B0008811B0008D0
:1000A000811B0008811B0008811B0008811B0008C0
:1000B00051190008811B000800000000811B000886
:1000C000811B00080000000000000000811B0008E8
:1000D00000000000811B0008811B000800000000D8
:1000E000811B0008811B0008811B00080000000024
:1000F0000000000000000000000000000000000000
:0C01000000000000000000005FF808F1A3
:10010C0010B5054C237833B9044B13B10448AFF345
:10011C0000800123237010BD8C0000200000000023
:10012C00D831000808B5034B1BB103490348AFF3A2
:10013C00008008BD0000000090000020D8310008AD
:10014C0080B400AF064B1B68012B04D1044B00227A
:10015C001A60012300E000231846BD4680BC70479E
:10016C00A800002080B400AF064B1B68012B04D103
:10017C00044B00221A60012300E000231846BD4600
:10018C0080BC7047AC00002080B400AF064B1B68ED
:10019C00012B04D1044B00221A60012300E0002340
:1001AC001846BD4680BC7047B000002080B582B0B8
:1001BC0000AF00237B601AE1914A7B6852F8232040
:1001CC0090497B6841F823208F4A7B6852F82320A2
:1001DC008B497B6841F823207B68002B54D14FF46A
:1001EC0080718A4801F0B2FF03461946864A7B6843
:1001FC0042F82310834A7B6852F8232080497B689D
:10020C0051F823309A423FD17D4A7B6852F8232023
:10021C007D497B6851F823309A4235D17C4A7B6802
:10022C0052F8232078497B6851F823309A4215D034
:10023C00754A7B6852F8232075497B6841F8232066
:10024C00714A7B6852F82330002B1DD1714B01226F
:10025C001A60714B4FF496721A6015E06A4A7B680B
:10026C0052F82330002B0FD16B4B1B68013B6A4AB1
:10027C001360694B1B68002B06D1684B01221A6076
:10028C00654B4FF496721A607B68012B54D14FF476
:10029C0000715E4801F05AFF034619465A4A7B68C2
:1002AC0042F82310574A7B6852F8232054497B6844
:1002BC0051F823309A423FD1514A7B6852F823209F
:1002CC0051497B6851F823309A4235D1504A7B68AA
:1002DC0052F823204C497B6851F823309A4215D0B0
:1002EC00494A7B6852F8232049497B6841F823200E
:1002FC00454A7B6852F82330002B1DD1484B012214
:10030C001A60454B4FF496721A6015E03E4A7B68B2
:10031C0052F82330002B0FD13F4B1B68013B3E4A58
:10032C0013603D4B1B68002B06D13E4B01221A601B
:10033C00394B4FF496721A607B68022B54D14FF4F0
:10034C008061324801F002FF034619462E4A7B6851
:10035C0042F823102B4A7B6852F8232028497B68EB
:10036C0051F823309A423FD1254A7B6852F823201A
:10037C0025497B6851F823309A4235D1244A7B6851
:10038C0052F8232020497B6851F823309A4215D02B
:10039C001D4A7B6852F823201D497B6841F82320B5
:1003AC00194A7B6852F82330002B1DD11E4B0122B9
:1003BC001A60194B4FF496721A6015E0124A7B685A
:1003CC0052F82330002B0FD1134B1B68013B124A00
:1003DC001360114B1B68002B06D1144B01221A60C1
:1003EC000D4B4FF496721A607B6801337B607B680F
:1003FC00022B7FF7E1AE00BF00BF0837BD4680BDC2
:10040C000C00002000000020180000200008014013
:10041C0024000020A800002030000020B4000020A0
:10042C00AC000020B8000020B0000020BC00002070
:10043C0080B582B000AF7860012201219F4801F0A5
:10044C009CFE012202219D4801F097FE012204210D
:10045C009A4801F092FE01220821984801F08DFE85
:10046C0001221021954801F088FE01222021934899
:10047C0001F083FE01224021904801F07EFE7B6852
:10048C00092B00F2168101A252F823F0C1040008D6
:10049C00FF04000815050008490500087D05000843
:1004AC00A7050008DB050008190600083906000836
:1004BC008106000800220121804801F05EFE002226
:1004CC0002217E4801F059FE002204217B4801F0F4
:1004DC0054FE00220821794801F04FFE0022102121
:1004EC00764801F04AFE00222021744801F045FEB6
:1004FC00E0E000220221714801F03FFE00220421BD
:10050C006E4801F03AFED5E0002201216B4801F063
:10051C0034FE00220221694801F02FFE002208213E
:10052C00664801F02AFE00221021644801F025FEE5
:10053C0000224021614801F020FEBBE00022012195
:10054C005E4801F01AFE002202215C4801F015FE03
:10055C0000220421594801F010FE002208215748BE
:10056C0001F00BFE00224021544801F006FEA1E0F0
:10057C0000220221514801F000FE002204214F48C4
:10058C0001F0FBFD002220214C4801F0F6FD002279
:10059C0040214A4801F0F1FD8CE00022012147483E
:1005AC0001F0EBFD00220421444801F0E6FD00229D
:1005BC000821424801F0E1FD002220213F4801F0D2
:1005CC00DCFD002240213D4801F0D7FD72E0002205
:1005DC0001213A4801F0D1FD00220421374801F0F5
:1005EC00CCFD00220821354801F0C7FD0022102166
:1005FC00324801F0C2FD00222021304801F0BDFD3F
:10060C00002240212D4801F0B8FD53E000220121C9
:10061C002A4801F0B2FD00220221284801F0ADFD6C
:10062C0000220421254801F0A8FD43E0002201210D
:10063C00224801F0A2FD00220221204801F09DFD7C
:10064C00002204211D4801F098FD002208211B48BE
:10065C0001F093FD00221021184801F08EFD0022BC
:10066C002021164801F089FD00224021134801F099
:10067C0084FD1FE000220121104801F07EFD0022C4
:10068C0002210E4801F079FD002204210B4801F0F3
:10069C0074FD00220821094801F06FFD0022202181
:1006AC00064801F06AFD00224021044801F065FD76
:1006BC0000E000BF00BF0837BD4680BD000C014004
:1006CC0080B582B000AF786001224FF40061BC4865
:1006DC0001F053FD01224FF48051B94801F04DFD5A
:1006EC0001224FF40051B64801F047FD01224FF4AE
:1006FC008041B34801F041FD01224FF40041B04864
:10070C0001F03BFD01224FF48051AE4801F035FD64
:10071C0001224FF40051AB4801F02FFD7B68092BEF
:10072C0000F2488101A252F823F000BF61070008D3
:10073C00AB070008C50700080308000841080008BB
:10074C0073080008B1080008FB080008210900081C
:10075C007709000800224FF40061994801F00DFD63
:10076C0000224FF48051964801F007FD00224FF40F
:10077C000051934801F001FD00224FF48041904854
:10078C0001F0FBFC00224FF400418D4801F0F5FC18
:10079C0000224FF480518B4801F0EFFC0BE100225A
:1007AC004FF48051864801F0E8FC00224FF40051D0
:1007BC00834801F0E2FCFEE000224FF40061804827
:1007CC0001F0DBFC00224FF480517D4801F0D5FC98
:1007DC0000224FF480417A4801F0CFFC00224FF404
:1007EC000041774801F0C9FC00224FF400517548D4
:1007FC0001F0C3FCDFE000224FF40061704801F00F
:10080C00BCFC00224FF480516D4801F0B6FC002274
:10081C004FF400516A4801F0B0FC00224FF48041C3
:10082C00674801F0AAFC00224FF40051654801F022
:10083C00A4FCC0E000224FF48051614801F09DFC03
:10084C0000224FF400515E4801F097FC00224FF457
:10085C0080515C4801F091FC00224FF40051594842
:10086C0001F08BFCA7E000224FF40061544801F02A
:10087C0084FC00224FF40051514801F07EFC002210
:10088C004FF480414E4801F078FC00224FF4805127
:10089C004C4801F072FC00224FF40051494801F021
:1008AC006CFC88E000224FF40061454801F065FCC7
:1008BC0000224FF40051424801F05FFC00224FF43B
:1008CC0080413F4801F059FC00224FF400413C4864
:1008DC0001F053FC00224FF480513A4801F04DFCDA
:1008EC0000224FF40051374801F047FC63E000222E
:1008FC004FF40061324801F040FC00224FF480516B
:10090C002F4801F03AFC00224FF400512C4801F022
:10091C0034FC50E000224FF40061294801F02DFC1A
:10092C0000224FF48051264801F027FC00224FF49E
:10093C000051234801F021FC00224FF48041204853
:10094C0001F01BFC00224FF400411D4801F015FC86
:10095C0000224FF480511B4801F00FFC00224FF491
:10096C000051184801F009FC25E000224FF4006109
:10097C00134801F002FC00224FF48051104801F0A2
:10098C00FCFB00224FF400510D4801F0F6FB002255
:10099C004FF480410A4801F0F0FB00224FF48051E3
:1009AC00084801F0EAFB00224FF40051054801F021
:1009BC00E4FB00E000BF00BF0837BD4680BD00BFB0
:1009CC0000080140000C014080B582B000AF786097
:1009DC007B68002B03D07B68012B12D023E0144BD7
:1009EC001B681846FFF724FD00224FF48071114854
:1009FC0001F0C3FB01224FF400710E4801F0BDFB66
:100A0C0011E00B4B5B681846FFF712FD01224FF407
:100A1C008071084801F0B1FB00224FF400710548C9
:100A2C0001F0ABFB00BF00BF0837BD4680BD00BF67
:100A3C00C8000020000C014080B582B000AF786087
:100A4C007B68002B03D07B68012B12D023E0144B66
:100A5C001B681846FFF734FE00224FF480611148E2
:100A6C0001F08BFB01224FF400610E4801F085FB75
:100A7C0011E00B4B5B681846FFF722FE01224FF486
:100A8C008061084801F079FB00224FF400610548B1
:100A9C0001F073FB00BF00BF0837BD4680BD00BF2F
:100AAC00D0000020000C014080B500AF8B4B1B68C0
:100ABC000A3B032B00F2088101A252F823F000BF7D
:100ACC00DD0A00080B0B0008A50B00083D0C000804
:100ADC00824B0B221A60824B1B684FF47A7202FB1A
:100AEC0003F3804A13607F4B1B681946012000F00A
:100AFC0043FE4FF47A71032000F03EFEEBE000F071
:100B0C0031FF794B1B68794A82FB03129210DB1779
:100B1C00D31A774A1360744B1968744B83FB012307
:100B2C009A10CB17D21A13469B0013445B00CA1AB7
:100B3C006F4B5A606F4BDB68012B11D16A4B1B68F2
:100B4C00013B694A1360684B1B68002B03D1644B53
:100B5C001B68654A13604FF47A71032000F00CFE99
:100B6C00644B5B68012B40F0B1805C4B0C221A602B
:100B7C00614B1B684FF47A7202FB03F3594A5360C2
:100B8C00584B5B681946012000F0F6FD4FF47A7162
:100B9C00032000F0F1FD99E000F0FAFE574B1B68C2
:100BAC00524A82FB03129210DB17D31A504A13607D
:100BBC00524B19684D4B83FB01239A10CB17D21A59
:100BCC0013469B0013445B00CA1A494B5A60494BAD
:100BDC00DB68012B11D1494B1B68013B474A136061
:100BEC00464B1B68002B03D1434B1B68434A1360D5
:100BFC004FF47A71032000F0BFFD3E4B5B68012B74
:100C0C0066D1364B0D221A603D4B1B684FF47A723D
:100C1C0002FB03F3334A9360324B9B681946012065
:100C2C0000F0AAFD4FF47A71032000F0A5FD4FE00F
:100C3C0000F0C4FE334B1B682C4A82FB031292104B
:100C4C00DB17D31A2A4A13602E4B1968274B83FBE8
:100C5C0001239A10CB17D21A13469B0013445B0046
:100C6C00CA1A234B5A60234BDB68012B11D1254B3D
:100C7C001B68013B234A1360224B1B68002B03D1DA
:100C8C001F4B1B681F4A13604FF47A71032000F04E
:100C9C0073FD184B5B68012B1CD1104B0B221A6097
:100CAC000F4B1B684FF47A7202FB03F30D4A13606F
:100CBC000C4B1B681946012000F05EFD4FF47A7155
:100CCC00032000F059FD05E000BF04E000BF02E086
:100CDC0000BF00E000BF00BF80BD00BF340000209B
:100CEC004C000020D8000020640000206766666677
:100CFC00C80000201C0100205000002068000020CB
:100D0C00540000206C00002080B500AF8B4B1B689A
:100D1C000E3B032B00F2088101A252F823F000BF16
:100D2C003D0D00089D0E00086B0D0008050E000817
:100D3C00824B10221A60824B1B684FF47A7202FBB2
:100D4C0003F3804A13607F4B1B681946022000F0A6
:100D5C0013FD4FF47A71052000F00EFDEBE000F06E
:100D6C0059FE794B1B68794A82FB03129210DB17F0
:100D7C00D31A774A1360744B1968744B83FB0123A5
:100D8C009A10CB17D21A13469B0013445B00CA1A55
:100D9C006F4B5A606F4B5B69012B11D16A4B1B680F
:100DAC00013B694A1360684B1B68002B03D1644BF1
:100DBC001B68654A13604FF47A71052000F0DCFC67
:100DCC00644B9B68012B40F0B1805C4B11221A6084
:100DDC00614B1B684FF47A7202FB03F3594A536060
:100DEC00584B5B681946022000F0C6FC4FF47A7130
:100DFC00052000F0C1FC99E000F022FE574B1B6867
:100E0C00524A82FB03129210DB17D31A504A13601A
:100E1C00524B19684D4B83FB01239A10CB17D21AF6
:100E2C0013469B0013445B00CA1A494B5A60494B4A
:100E3C005B69012B11D1494B1B68013B474A13607D
:100E4C00464B1B68002B03D1434B1B68434A136072
:100E5C004FF47A71052000F08FFC3E4B9B68012B00
:100E6C0066D1364B0F221A603D4B1B684FF47A72D9
:100E7C0002FB03F3334A9360324B9B681946022002
:100E8C0000F07AFC4FF47A71052000F075FC4FE00D
:100E9C0000F0AAFD334B1B682C4A82FB0312921004
:100EAC00DB17D31A2A4A13602E4B1968274B83FB86
:100EBC0001239A10CB17D21A13469B0013445B00E4
:100ECC00CA1A234B5A60234B5B69012B11D1254B5A
:100EDC001B68013B234A1360224B1B68002B03D178
:100EEC00214B1B681F4A13604FF47A71052000F0E8
:100EFC0043FC184B9B68012B1CD1104B10221A6021
:100F0C000F4B1B684FF47A7202FB03F30D4A13600C
:100F1C000C4B1B681946022000F02EFC4FF47A7122
:100F2C00052000F029FC05E000BF04E000BF02E052
:100F3C0000BF00E000BF00BF80BD00BF3800002034
:100F4C005C000020E40000207400002067666666E8
:100F5C00D00000201C010020600000207800002040
:100F6C0058000020700000204C00002080B500AF1D
:100F7C008C4B1B68042B00F2138101A252F823F056
:100F8C00A10F0008A90F0008D50F00086B1000086E
:100F9C00FF100008834B01221A6001E1824B1E22D4
:100FAC001A60824B23221A60814B14221A60814BE7
:100FBC0018221A60FFF7C4F80346012B40F0E980B1
:100FCC00784B02221A60E4E0774B1F221A60774BB1
:100FDC002D221A60764B15221A60764B19221A6054
:100FEC00FFF7C0F80346012B09D1734B1B68013383
:100FFC00714A1360714B1B680133704A13606F4B5D
:10100C001B686F4A82FB03129210DB17D31A6D4ACE
:10101C0013606A4B19686A4B83FB01239A10CB1738
:10102C00D21A13469B0013445B00CA1A654B5A60D4
:10103C00FFF7AAF80346012B07D15F4B1B68624AE6
:10104C0013605E4B1B68614A1360FFF779F8034627
:10105C00012B40F0A080534B03221A609BE0524BB3
:10106C0021221A60514B2F221A60514B16221A6002
:10107C00504B19221A60FFF775F80346012B09D162
:10108C00534B1B680133524A1360524B1B6801339C
:10109C00504A13604F4B1B68494A82FB0312921053
:1010AC00DB17D31A474A13604A4B1968444B83FB2E
:1010BC0001239A10CB17D21A13469B0013445B00E2
:1010CC00CA1A404B5A60FFF75FF80346012B07D151
:1010DC003F4B1B68404A13603E4B1B683F4A1360F2
:1010EC00FFF72EF80346012B57D12E4B04221A6022
:1010FC0053E02D4B20221A602C4B2E221A602C4BC5
:10110C0017221A602B4B19221A60FFF72BF8034693
:10111C00012B09D1324B1B680133314A1360314B1F
:10112C001B6801332F4A13602E4B1B68244A82FB29
:10113C0003129210DB17D31A224A1360294B196839
:10114C001F4B83FB01239A10CB17D21A13469B001B
:10115C0013445B00CA1A1B4B5A60FFF715F8034681
:10116C00012B07D11E4B1B681F4A13601D4B1B68BC
:10117C001E4A1360FEF7E4FF0346012B0FD11C4BF4
:10118C000A221A601B4B0E221A60064B00221A60B0
:10119C0005E000BF04E000BF02E000BF00E000BFBC
:1011AC0000BF80BDF000002044000020480000205B
:1011BC003C000020400000204C0000205800002083
:1011CC0067666666D0000020640000207000002076
:1011DC0054000020600000206C00002078000020EB
:1011EC00500000205C0000206800002074000020EB
:1011FC00340000203800002080B500AF464B1B683F
:10120C00143B032B7CD801A252F823F029120008BE
:10121C005912000895120008D11200083F4B1B69A7
:10122C00012B6FD13E4B1B685A1C3D490A60184676
:10123C00FFF7CAFB3A4B1B68022B02D1384B00223A
:10124C001A60C821042000F097FA5BE0354B0022AD
:10125C001A60344B02225A60304B1B69012B53D15C
:10126C002F4B1B685A1C2E490A601846FFF7ACFB23
:10127C002B4B1B68022B02D1294B00221A60C82170
:10128C00042000F079FA3FE0264B00221A60254B2F
:10129C0003225A60214B1B69012B37D1204B1B6851
:1012AC005A1C1F490A601846FFF78EFB1C4B1B6823
:1012BC00022B02D11A4B00221A60C821042000F024
:1012CC005BFA23E0174B00221A60164B04225A607B
:1012DC00124B1B69012B1BD1114B1B685A1C10495B
:1012EC000A601846FFF770FB0D4B1B68022B02D1EE
:1012FC000B4B00221A60C821042000F03DFA07E0D5
:10130C0000BF06E000BF04E000BF02E000BF00E049
:10131C0000BF00BF80BD00BF3C0000201C010020AE
:10132C00C0000020C800002080B500AF1D4B1B681A
:10133C00182B02D0192B18D032E01B4B9B69012BB8
:10134C002BD11A4B1B685A1C18490A601846FFF718
:10135C0073FB164B1B68022B02D1144B00221A6034
:10136C00C821062000F008FA17E00F4B9B69012BEF
:10137C0015D10E4B1B685A1C0C490A601846FFF716
:10138C005BFB0A4B1B68022B02D1084B00221A6034
:10139C00C821062000F0F0F901E000BF00E000BF1A
:1013AC0000BF80BD400000201C010020C4000020B4
:1013BC0080B500AF254B1B681E3B032B3DD801A20B
:1013CC0052F823F0E1130008E71300082714000873
:1013DC0007140008FFF768FB36E000F067FB1C4BB6
:1013EC001B6A012B2BD102211A4800F0DEFE4FF4B0
:1013FC00FA71082000F0C0F921E000F037FB144B23
:10140C001B6A012B1DD10821124800F0CEFE4FF4AF
:10141C00FA71082000F0B0F913E000F037FB0C4B28
:10142C001B6A012B0FD104210A4800F0BEFE4FF4B9
:10143C00FA71082000F0A0F905E000BF04E000BF3D
:10144C0002E000BF00E000BF00BF80BD44000020F0
:10145C001C0100200008014080B500AF2E4B1B681A
:10146C00233B0C2B4FD801A252F823F0AD140008EB
:10147C0013150008131500081315000813150008A0
:10148C001315000813150008131500081315000890
:10149C0013150008B3140008D3140008F314000843
:1014AC00FFF732FC36E000F031FB1C4BDB69012B03
:1014BC002BD110211A4800F078FE4FF4FA71072056
:1014CC0000F05AF921E000F011FB144BDB69012B01
:1014DC001DD12021124800F068FE4FF4FA7107204C
:1014EC0000F04AF913E000F0F1FA0C4BDB69012B28
:1014FC000FD140210A4800F058FE4FF4FA71072032
:10150C0000F03AF905E000BF04E000BF02E000BFC4
:10151C0000E000BF00BF80BD480000201C0100207F
:10152C000008014080B500AF00F026FB00F026F863
:10153C0000F0ACF800F05EF80F4801F087FA0A21D1
:10154C00042000F019F90A21062000F015F94FF4D7
:10155C00FA71072000F010F94FF4FA71082000F02E
:10156C000BF9FFF703FDFFF747FEFFF7DDFEFFF773
:10157C001FFFFFF771FFF4E74401002080B590B026
:10158C0000AF07F1180328220021184601F016FEBF
:10159C003B1D00221A605A609A60DA601A610223BD
:1015AC00BB610123BB621023FB6200237B6307F149
:1015BC001803184600F012FE0346002B01D000F071
:1015CC00D5F80F237B600023BB600023FB60002356
:1015DC003B6100237B613B1D0021184601F07EF826
:1015EC000346002B01D000F0C1F800BF4037BD46C8
:1015FC0080BD000080B586B000AF07F10803002263
:10160C001A605A609A60DA603B4600221A605A608F
:10161C001D4B4FF080421A601B4B41F63F725A60D3
:10162C00194B00229A60184B0922DA60164B0022E3
:10163C001A61154B00229A61134801F0B7F9034661
:10164C00002B01D000F092F84FF48053BB6007F1EF
:10165C00080319460C4801F04DFB0346002B01D042
:10166C0000F084F800233B6000237B603B46194666
:10167C00054801F015FD0346002B01D000F076F86B
:10168C0000BF1837BD4680BD4401002080B586B030
:10169C0000AF07F1080300221A605A609A60DA6002
:1016AC00294B9B69284A43F004039361264B9B69A1
:1016BC0003F004037B607B68234B9B69224A43F055
:1016CC0008039361204B9B6903F008033B603B6864
:1016DC0000224FF6FE011D4800F04FFD002243F69C
:1016EC007F711B4800F049FD4FF6FE03BB600123E0
:1016FC00FB6000233B6102237B6107F10803194661
:10170C00124800F0A9FB43F67F73BB600123FB601A
:10171C0000233B6102237B6107F1080319460C4847
:10172C0000F09AFB4FF4E063BB600023FB600123E5
:10173C003B6107F108031946044800F08DFB00BF1C
:10174C001837BD4680BD00BF0010024000080140A4
:10175C00000C014080B582B000AF786000F052F808
:10176C00FEF724FD00BF0837BD4680BD80B400AF36
:10177C0072B600BFFEE7000080B483B000AF7860A3
:10178C003960094A7B68002142F82310074B1B681B
:10179C003A6892FBF3F206497B6841F8232000BFBC
:1017AC000C37BD4680BC70471C0100207C0000201B
:1017BC00F400002080B483B000AF78600F4A7B68DF
:1017CC0052F82330002B13DD0C4A7B6852F823307F
:1017DC005A1E0A497B6841F82320084A7B6852F854
:1017EC002330002B04DC064A7B68012142F82310CD
:1017FC0000BF0C37BD4680BC704700BFF400002012
:10180C001C01002080B500AF0020FFF7D3FF0120A2
:10181C00FFF7D0FF0220FFF7CDFF0320FFF7CAFF31
:10182C000420FFF7C7FF0520FFF7C4FF0620FFF7D2
:10183C00C1FF0720FFF7BEFF0820FFF7BBFF092001
:10184C00FFF7B8FF00BF80BD80B485B000AF154B6B
:10185C009B69144A43F001039361124B9B6903F09B
:10186C000103BB60BB680F4BDB690E4A43F080532E
:10187C00D3610C4BDB6903F080537B607B680A4BB4
:10188C005B68FB60FB6823F0E063FB60FB6843F084
:10189C008063FB60044AFB68536000BF1437BD468D
:1018AC0080BC7047001002400000014080B584B03D
:1018BC0000AF78607B681B68B3F1804F13D10C4B81
:1018CC00DB690B4A43F00103D361094BDB6903F07D
:1018DC000103FB60FB68002200211C2000F085FA4C
:1018EC001C2000F09EFA00BF1037BD4680BD00BF23
:1018FC000010024080B400AFFEE780B400AFFEE7FA
:10190C0080B400AFFEE780B400AFFEE780B400AF58
:10191C00FEE780B400AF00BFBD4680BC704780B40A
:10192C0000AF00BFBD4680BC704780B400AF00BFA5
:10193C00BD4680BC704780B500AF00F063F900BFB6
:10194C0080BD000080B500AF024801F0CBF800BFAD
:10195C0080BD00BF4401002080B400AF00BFBD4675
:10196C0080BC704780B500AF01220221074800F00F
:10197C0004FC00220421054800F0FFFB0022082192
:10198C00024800F0FAFB00BF80BD00BF0008014018
:10199C0080B500AF00220221074800F0EEFB0022C8
:1019AC000821054800F0E9FB01220421024800F05F
:1019BC00E4FB00BF80BD00BF0008014080B500AF54
:1019CC0000220221074800F0D8FB0122082105481B
:1019DC0000F0D3FB00220421024800F0CEFB00BF34
:1019EC0080BD00BF0008014080B500AF012210216E
:1019FC00074800F0C2FB00222021054800F0BDFB87
:101A0C0000224021024800F0B8FB00BF80BD00BF9F
:101A1C000008014080B500AF00221021074800F0FB
:101A2C00ACFB00224021054800F0A7FB012220213D
:101A3C00024800F0A2FB00BF80BD00BF00080140BF
:101A4C0080B500AF00221021074800F096FB012260
:101A5C004021054800F091FB00222021024800F0B3
:101A6C008CFB00BF80BD00BF0008014080B500AFFB
:101A7C0000220221044800F080FB002204210248CD
:101A8C0000F07BFB00BF80BD0008014080B500AFBB
:101A9C0000220221044800F070FB002208210248B9
:101AAC0000F06BFB00BF80BD0008014080B500AFAB
:101ABC0000220421044800F060FB002208210248A7
:101ACC0000F05BFB00BF80BD0008014080B500AF9B
:101ADC0000221021044800F050FB00222021024873
:101AEC0000F04BFB00BF80BD0008014080B500AF8B
:101AFC0000221021044800F040FB00224021024843
:101B0C0000F03BFB00BF80BD0008014080B500AF7A
:101B1C0000222021044800F030FB00224021024822
:101B2C0000F02BFB00BF80BD000801400C480D49A4
:101B3C000D4A002302E0D458C4500433C4188C421C
:101B4C00F9D30A4A0A4C002301E013600432A24282
:101B5C00FBD3FFF701FF01F00DFBFFF7E3FC704730
:101B6C00000000208C000020183200088C0000209F
:101B7C0090010020FEE7000080B500AF084B1B6809
:101B8C00074A43F010031360032000F023F90F20E1
:101B9C0000F008F8FFF758FE0023184680BD00BF80
:101BAC000020024080B582B000AF7860124B1A68FA
:101BBC00124B1B7819464FF47A73B3FBF1F3B2FB5B
:101BCC00F3F3184600F03BF90346002B01D0012338
:101BDC000EE07B680F2B0AD8002279684FF0FF309B
:101BEC0000F003F9064A7B681360002300E0012330
:101BFC0018460837BD4680BD8000002088000020B4
:101C0C008400002080B400AF054B1B781A46054BAE
:101C1C001B681344034A136000BFBD4680BC704769
:101C2C00880000208C01002080B400AF024B1B68A0
:101C3C001846BD4680BC70478C01002080B485B02E
:101C4C0000AF78607B6803F00703FB600C4BDB682C
:101C5C00BB60BA684FF6FF031340BB60FB681A0207
:101C6C00BB68134343F0BF6343F40033BB60044AC7
:101C7C00BB68D36000BF1437BD4680BC704700BF43
:101C8C0000ED00E080B400AF044BDB681B0A03F0EE
:101C9C0007031846BD4680BC704700BF00ED00E04E
:101CAC0080B483B000AF0346FB7197F90730002B6B
:101CBC000BDBFB7903F01F02064997F907305B0930
:101CCC00012000FA02F241F8232000BF0C37BD4678
:101CDC0080BC704700E100E080B483B000AF0346E5
:101CEC003960FB7197F90730002B0ADB3B68DAB2DD
:101CFC000C4997F907301201D2B20B4483F8002338
:101D0C000AE03B68DAB20849FB7903F00F03043BA5
:101D1C001201D2B20B441A7600BF0C37BD4680BC00
:101D2C00704700BF00E100E000ED00E080B489B036
:101D3C0000AFF860B9607A60FB6803F00703FB61E1
:101D4C00FB69C3F10703042B28BF0423BB61FB69A8
:101D5C000433062B02D9FB69033B00E000237B61B3
:101D6C004FF0FF32BB6902FA03F3DA43BB681A4047
:101D7C007B699A404FF0FF317B6901FA03F3D94339
:101D8C007B680B40134318462437BD4680BC704714
:101D9C0080B582B000AF78607B68013BB3F1807F87
:101DAC0001D301230FE00A4A7B68013B53600F21EA
:101DBC004FF0FF30FFF790FF054B00229A60044B69
:101DCC0007221A60002318460837BD4680BD00BFA5
:101DDC0010E000E080B582B000AF78607868FFF763
:101DEC002DFF00BF0837BD4680BD80B586B000AF63
:101DFC000346B9607A60FB7300237B61FFF742FFF7
:101E0C0078617A68B9687869FFF790FF024697F9AC
:101E1C000F3011461846FFF75FFF00BF1837BD465D
:101E2C0080BD80B582B000AF0346FB7197F90730D7
:101E3C001846FFF735FF00BF0837BD4680BD80B59B
:101E4C0082B000AF78607868FFF7A2FF03461846AF
:101E5C000837BD4680BD000080B48BB000AF786001
:101E6C00396000237B6200233B6248E101227B6ADC
:101E7C0002FA03F3FB613B681B68FA691340BB6110
:101E8C00BA69FB699A4240F037813B685B68A34AA8
:101E9C0093425ED0A14A934275D8A14A934258D03E
:101EAC009F4A93426FD89F4A934252D09D4A934285
:101EBC0069D89D4A93424CD09B4A934263D89B4A23
:101ECC00934246D0994A93425DD8122B2AD8122BB2
:101EDC0059D801A252F823F05F1F0008391F0008DF
:101EEC004B1F00088D1F0008931F0008931F00084C
:101EFC00931F0008931F0008931F0008931F0008EE
:101F0C00931F0008931F0008931F0008931F0008DD
:101F1C00931F0008931F0008931F0008411F00081F
:101F2C00551F0008824A934213D02CE03B68DB68B3
:101F3C003B6229E03B68DB6804333B6224E03B688E
:101F4C00DB6808333B621FE03B68DB680C333B62A9
:101F5C001AE03B689B68002B02D104233B6213E020
:101F6C003B689B68012B05D108233B627B68FA69AF
:101F7C001A6109E008233B627B68FA695A6103E045
:101F8C0000233B6200E000BFBB69FF2B01D87B68DC
:101F9C0001E07B6804337B61BB69FF2B02D87B6A51
:101FAC009B0002E07B6A083B9B003B617B691A68E3
:101FBC000F213B6901FA03F3DB431A40396A3B6991
:101FCC0001FA03F31A437B691A603B685B6803F000
:101FDC008053002B00F09080564B9B69554A43F080
:101FEC0001039361534B9B6903F00103BB60BB6816
:101FFC00514A7B6A9B08023352F82330FB607B6AA0
:10200C0003F003039B000F2202FA03F3DB43FA688D
:10201C001340FB607B68494A93420DD07B68484A69
:10202C00934207D07B68474A934201D1022304E0D4
:10203C00032302E0012300E000237A6A02F003028A
:10204C0092009340FA681343FB603B497B6A9B0800
:10205C000233FA6841F823203B685B6803F4803351
:10206C00002B06D0384B1A683749BB6913430B60F9
:10207C0006E0354B1A68BB69DB43334913400B60F0
:10208C003B685B6803F40033002B06D02E4B5A6878
:10209C002D49BB6913434B6006E02B4B5A68BB6957
:1020AC00DB43294913404B603B685B6803F48013A6
:1020BC00002B06D0244B9A682349BB6913438B60D1
:1020CC0006E0214B9A68BB69DB431F4913408B60C8
:1020DC003B685B6803F40013002B06D01A4BDA68DC
:1020EC001949BB691343CB6006E0174BDA68BB692F
:1020FC00DB4315491340CB607B6A01337B623B6841
:10210C001A687B6A22FA03F3002B7FF4AFAE00BF90
:10211C0000BF2C37BD4680BC704700BF000032109A
:10212C0000003110000022100000211000001210DD
:10213C000000111000100240000001400008014096
:10214C00000C0140001001400004014080B485B037
:10215C0000AF78600B467B807B689A687B88134065
:10216C00002B02D00123FB7301E00023FB73FB7BEC
:10217C0018461437BD4680BC704780B483B000AF9E
:10218C0078600B467B8013467B707B78002B03D0EA
:10219C007A887B681A6103E07B881A047B681A6171
:1021AC0000BF0C37BD4680BC704780B485B000AF13
:1021BC0078600B467B807B68DB68FB607A88FB6809
:1021CC0013401A04FB68D9437B880B401A437B6885
:1021DC001A6100BF1437BD4680BC704780B586B00D
:1021EC0000AF78607B68002B01D101236CE27B6827
:1021FC001B6803F00103002B00F08780924B5B6897
:10220C0003F00C03042B0CD08F4B5B6803F00C0316
:10221C00082B12D18C4B5B6803F48033B3F5803FF1
:10222C000BD1894B1B6803F40033002B6CD07B68FB
:10223C005B68002B68D1012346E27B685B68B3F5D1
:10224C00803F06D1804B1B687F4A43F48033136078
:10225C002EE07B685B68002B0CD17B4B1B687A4AA9
:10226C0023F480331360784B1B68774A23F4802364
:10227C0013601DE07B685B68B3F5A02F0CD1724B2B
:10228C001B68714A43F4802313606F4B1B686E4AC2
:10229C0043F4803313600BE06B4B1B686A4A23F4E6
:1022AC0080331360684B1B68674A23F480231360E8
:1022BC007B685B68002B13D0FFF7B6FC386108E035
:1022CC00FFF7B2FC02463B69D31A642B01D90323F6
:1022DC00FAE15D4B1B6803F40033002BF0D014E0E3
:1022EC00FFF7A2FC386108E0FFF79EFC02463B6951
:1022FC00D31A642B01D90323E6E1534B1B6803F477
:10230C000033002BF0D100E000BF7B681B6803F0AA
:10231C000203002B63D04C4B5B6803F00C03002BC7
:10232C000BD0494B5B6803F00C03082B1CD1464BBC
:10233C005B6803F48033002B16D1434B1B6803F00E
:10234C000203002B05D07B681B69012B01D00123F4
:10235C00BAE13D4B1B6823F0F8027B685B69DB003C
:10236C00394913430B603AE07B681B69002B20D082
:10237C00364B01221A60FFF757FC386108E0FFF773
:10238C0053FC02463B69D31A022B01D903239BE170
:10239C002D4B1B6803F00203002BF0D02A4B1B685B
:1023AC0023F0F8027B685B69DB00274913430B6061
:1023BC0015E0264B00221A60FFF736FC386108E066
:1023CC00FFF732FC02463B69D31A022B01D90323D7
:1023DC007AE11D4B1B6803F00203002BF0D17B68E4
:1023EC001B6803F00803002B3AD07B689B69002B19
:1023FC0019D0174B01221A60FFF716FC386108E060
:10240C00FFF712FC02463B69D31A022B01D90323B6
:10241C005AE10D4B5B6A03F00203002BF0D0012054
:10242C0000F0A6FA1CE00A4B00221A60FFF7FCFB36
:10243C0038610FE0FFF7F8FB02463B69D31A022B19
:10244C0008D9032340E100BF0010024000004242C3
:10245C00800442429E4B5B6A03F00203002BE9D1DD
:10246C007B681B6803F00403002B00F0A68000239C
:10247C00FB75974BDB6903F08053002B0DD1944B0C
:10248C00DB69934A43F08053D361914BDB6903F0D2
:10249C008053BB60BB680123FB758E4B1B6803F438
:1024AC008073002B18D18B4B1B688A4A43F48073C2
:1024BC001360FFF7B9FB386108E0FFF7B5FB024684
:1024CC003B69D31A642B01D90323FDE0814B1B68B4
:1024DC0003F48073002BF0D07B68DB68012B06D1F2
:1024EC007B4B1B6A7A4A43F0010313622DE07B6835
:1024FC00DB68002B0CD1764B1B6A754A23F0010369
:10250C001362734B1B6A724A23F0040313621CE0C0
:10251C007B68DB68052B0CD16D4B1B6A6C4A43F056
:10252C00040313626A4B1B6A694A43F0010313628A
:10253C000BE0674B1B6A664A23F001031362644B82
:10254C001B6A634A23F0040313627B68DB68002B6D
:10255C0015D0FFF769FB38610AE0FFF765FB02460F
:10256C003B69D31A41F28832934201D90323ABE081
:10257C00574B1B6A03F00203002BEED014E0FFF75D
:10258C0053FB38610AE0FFF74FFB02463B69D31A55
:10259C0041F28832934201D9032395E04C4B1B6ADC
:1025AC0003F00203002BEED1FB7D012B05D1484B30
:1025BC00DB69474A23F08053D3617B68DB69002BCE
:1025CC0000F08180424B5B6803F00C03082B61D058
:1025DC007B68DB69022B46D13F4B00221A60FFF768
:1025EC0023FB386108E0FFF71FFB02463B69D31A57
:1025FC00022B01D9032367E0354B1B6803F00073F2
:10260C00002BF0D17B681B6AB3F5803F08D1304BAF
:10261C005B6823F400327B689B682D4913434B6045
:10262C002B4B5B6823F474127B68196A7B685B6ABA
:10263C000B43274913434B60274B01221A60FFF7CA
:10264C00F3FA386108E0FFF7EFFA02463B69D31A58
:10265C00022B01D9032337E01D4B1B6803F00073D9
:10266C00002BF0D02FE01C4B00221A60FFF7DCFA95
:10267C00386108E0FFF7D8FA02463B69D31A022BFF
:10268C0001D9032320E0124B1B6803F00073002BCD
:10269C00F0D118E07B68DB69012B01D1012313E039
:1026AC000B4B5B68FB60FB6803F480327B681B6A36
:1026BC009A4206D1FB6803F470127B685B6A9A42FB
:1026CC0001D0012300E0002318461837BD4680BD19
:1026DC0000100240007000406000424280B584B09F
:1026EC0000AF786039607B68002B01D10123D0E00A
:1026FC006A4B1B6803F007033A689A4210D9674B80
:10270C001B6823F0070265493B6813430B60634B5E
:10271C001B6803F007033A689A4201D00123B8E022
:10272C007B681B6803F00203002B20D07B681B68BE
:10273C0003F00403002B05D0594B5B68584A43F453
:10274C00E06353607B681B6803F00803002B05D023
:10275C00534B5B68524A43F460535360504B5B6875
:10276C0023F0F0027B689B684D4913434B607B68F8
:10277C001B6803F00103002B40D07B685B68012BC6
:10278C0007D1474B1B6803F40033002B15D10123F1
:10279C007FE07B685B68022B07D1414B1B6803F021
:1027AC000073002B09D1012373E03D4B1B6803F030
:1027BC000203002B01D101236BE0394B5B6823F042
:1027CC0003027B685B68364913434B60FFF72CFAB6
:1027DC00F8600AE0FFF728FA0246FB68D31A41F2C8
:1027EC008832934201D9032353E02D4B5B6803F0ED
:1027FC000C027B685B689B009A42EBD1274B1B68F1
:10280C0003F007033A689A4210D2244B1B6823F05A
:10281C00070222493B6813430B60204B1B6803F0F3
:10282C0007033A689A4201D0012332E07B681B68A7
:10283C0003F00403002B08D0194B5B6823F4E0620F
:10284C007B68DB68164913434B607B681B6803F09D
:10285C000803002B09D0124B5B6823F460527B6891
:10286C001B69DB000E4913434B6000F021F8024654
:10287C000B4B5B681B0903F00F030A49CB5C22FA74
:10288C0003F3094A1360094B1B681846FFF78AF9D2
:10289C00002318461037BD4680BD00BF0020024003
:1028AC00001002400032000880000020840000204C
:1028BC0090B48AB000AF2A4B3C1D0FCB84E80F00BC
:1028CC0040F201233B800023FB610023BB6100230A
:1028DC007B6200237B6100233B62224B5B68FB61C4
:1028EC00FB6903F00C03042B02D0082B03D02DE062
:1028FC001D4B3B622DE0FB699B0C03F00F0307F1B2
:10290C002802134413F8243C7B61FB6903F48033E5
:10291C00002B13D0134B5B685B0C03F0010307F126
:10292C002802134413F8283CBB617B690E4A02FB56
:10293C0003F2BB69B2FBF3F37B6204E07B690B4AE5
:10294C0002FB03F37B627B6A3B6202E0064B3B6259
:10295C0000BF3B6A18462837BD4690BC704700BF85
:10296C00F03100080010024000127A0000093D000E
:10297C0080B485B000AF78600A4B1B680A4AA2FB92
:10298C0003235B0A7A6802FB03F3FB6000BFFB685E
:10299C005A1EFA60002BF9D100BF00BF1437BD4698
:1029AC0080BC704780000020D34D621080B582B08F
:1029BC0000AF78607B68002B01D1012341E07B687C
:1029CC0093F83D30DBB2002B06D17B68002283F8F4
:1029DC003C207868FEF76AFF7B68022283F83D2072
:1029EC007B681A687B6804331946104600F06AFA53
:1029FC007B68012283F846207B68012283F83E2005
:102A0C007B68012283F83F207B68012283F84020F9
:102A1C007B68012283F841207B68012283F84220E5
:102A2C007B68012283F843207B68012283F84420D1
:102A3C007B68012283F845207B68012283F83D20C6
:102A4C00002318460837BD4680BD000080B485B011
:102A5C0000AF78607B6893F83D30DBB2012B01D07E
:102A6C00012335E07B68022283F83D207B681B68DC
:102A7C00DA687B681B6842F00102DA607B681B68CD
:102A8C00164A934209D07B681B68B3F1804F04D07F
:102A9C007B681B68124A934211D17B681B689B6848
:102AAC0003F00703FB60FB68062B10D07B681B68E8
:102ABC001A687B681B6842F001021A6007E07B68A9
:102ACC001B681A687B681B6842F001021A600023BD
:102ADC0018461437BD4680BC704700BF002C01401F
:102AEC000004004080B582B000AF78607B681B6842
:102AFC001B6903F00203022B22D17B681B68DB6885
:102B0C0003F00203022B1BD17B681B686FF00202DF
:102B1C001A617B6801221A777B681B689B6903F03A
:102B2C000303002B03D0786800F0B1F905E0786856
:102B3C0000F0A4F9786800F0B3F97B6800221A77EA
:102B4C007B681B681B6903F00403042B22D17B6890
:102B5C001B68DB6803F00403042B1BD17B681B6828
:102B6C006FF004021A617B6802221A777B681B687B
:102B7C009B6903F44073002B03D0786800F087F94D
:102B8C0005E0786800F07AF9786800F089F97B68DC
:102B9C0000221A777B681B681B6903F00803082B5B
:102BAC0022D17B681B68DB6803F00803082B1BD160
:102BBC007B681B686FF008021A617B6804221A7725
:102BCC007B681B68DB6903F00303002B03D0786878
:102BDC0000F05DF905E0786800F050F9786800F0D5
:102BEC005FF97B6800221A777B681B681B6903F00E
:102BFC001003102B22D17B681B68DB6803F01003D9
:102C0C00102B1BD17B681B686FF010021A617B685C
:102C1C0008221A777B681B68DB6903F44073002B6E
:102C2C0003D0786800F033F905E0786800F026F9F5
:102C3C00786800F035F97B6800221A777B681B688E
:102C4C001B6903F00103012B0ED17B681B68DB6849
:102C5C0003F00103012B07D17B681B686FF00102A5
:102C6C001A617868FEF776FD7B681B681B6903F0B8
:102C7C008003802B0ED17B681B68DB6803F080031C
:102C8C00802B07D17B681B686FF080021A61786813
:102C9C0000F067FA7B681B681B6903F04003402B4C
:102CAC000ED17B681B68DB6803F04003402B07D117
:102CBC007B681B686FF040021A61786800F0F9F8C5
:102CCC007B681B681B6903F02003202B0ED17B68EB
:102CDC001B68DB6803F02003202B07D17B681B6883
:102CEC006FF020021A61786800F032FA00BF0837E2
:102CFC00BD4680BD80B584B000AF786039607B681C
:102D0C0093F83C30012B01D10223B3E07B68012204
:102D1C0083F83C207B68022283F83D207B681B688B
:102D2C009B68FB60FB6823F07703FB60FB6823F474
:102D3C007F43FB607B681B68FA689A603B681B6882
:102D4C00B3F5005F3ED0B3F5005F00F28780B3F5BA
:102D5C00805F00F08580B3F5805F7FD8702B1AD030
:102D6C00702B7BD8602B50D0602B77D8502B3CD05D
:102D7C00502B73D8402B58D0402B6FD8302B64D0AD
:102D8C00302B6BD8202B60D0202B67D8002B5CD03D
:102D9C00102B5AD062E07B6818683B6899683B68D6
:102DAC005A683B68DB6800F05CF97B681B689B68C1
:102DBC00FB60FB6843F07703FB607B681B68FA6879
:102DCC009A604EE07B6818683B6899683B685A6863
:102DDC003B68DB6800F045F97B681B689A687B6888
:102DEC001B6842F480429A603BE07B6818683B6841
:102DFC0059683B68DB681A4600F0BCF87B681B68B6
:102E0C005021184600F013F92BE07B6818683B68DA
:102E1C0059683B68DB681A4600F0DAF87B681B6877
:102E2C006021184600F003F91BE07B6818683B68CA
:102E3C0059683B68DB681A4600F09CF87B681B6895
:102E4C004021184600F0F3F80BE07B681A683B68E9
:102E5C001B681946104600F0EAF802E000BF00E0DB
:102E6C0000BF7B68012283F83D207B68002283F839
:102E7C003C20002318461037BD4680BD80B483B07B
:102E8C0000AF786000BF0C37BD4680BC704780B483
:102E9C0083B000AF786000BF0C37BD4680BC704774
:102EAC0080B483B000AF786000BF0C37BD4680BCE7
:102EBC00704780B483B000AF786000BF0C37BD465C
:102ECC0080BC704780B485B000AF786039607B6897
:102EDC001B68FB607B68254A934207D07B68B3F183
:102EEC00804F03D07B68224A934208D1FB6823F0C1
:102EFC007003FB603B685B68FA681343FB607B689C
:102F0C001A4A934207D07B68B3F1804F03D07B6899
:102F1C00174A934208D1FB6823F44073FB603B686B
:102F2C00DB68FA681343FB60FB6823F080023B68A4
:102F3C005B691343FB607B68FA681A603B689A68AC
:102F4C007B68DA623B681A687B689A627B68074A1E
:102F5C00934203D13B681A697B681A637B68012230
:102F6C005A6100BF1437BD4680BC7047002C01402D
:102F7C000004004080B487B000AFF860B9607A609C
:102F8C00FB681B6A7B61FB681B6A23F00102FB6810
:102F9C001A62FB689B693B613B6923F0F0033B6160
:102FAC007B681B013A6913433B617B6923F00A037D
:102FBC007B617A69BB6813437B61FB683A699A61F0
:102FCC00FB687A691A6200BF1C37BD4680BC70472B
:102FDC0080B487B000AFF860B9607A60FB681B6A98
:102FEC0023F01002FB681A62FB689B697B61FB682B
:102FFC001B6A3B617B6923F470437B617B681B0319
:10300C007A6913437B613B6923F0A0033B61BB6886
:10301C001B013A6913433B61FB687A699A61FB684F
:10302C003A691A6200BF1C37BD4680BC704780B439
:10303C0085B000AF786039607B689B68FB60FB688B
:10304C0023F07003FB603A68FB68134343F00703FB
:10305C00FB607B68FA689A6000BF1437BD4680BC81
:10306C00704780B487B000AFF860B9607A603B609D
:10307C00FB689B687B617B6923F47F437B613B68C6
:10308C001A027B681A43BB6813437A6913437B614A
:10309C00FB687A699A6000BF1C37BD4680BC7047DC
:1030AC0080B485B000AF786039607B6893F83C30B1
:1030BC00012B01D1022341E07B68012283F83C20E3
:1030CC007B68022283F83D207B681B685B68FB6091
:1030DC007B681B689B68BB60FB6823F07003FB601C
:1030EC003B681B68FA681343FB607B681B68FA68D3
:1030FC005A607B681B68144A934209D07B681B6832
:10310C00B3F1804F04D07B681B68104A93420CD1FA
:10311C00BB6823F08003BB603B685B68BA681343F1
:10312C00BB607B681B68BA689A607B68012283F875
:10313C003D207B68002283F83C200023184614377E
:10314C00BD4680BC704700BF002C0140000400400D
:10315C0080B483B000AF786000BF0C37BD4680BC34
:10316C00704780B483B000AF786000BF0C37BD46A9
:10317C0080BC704770B500260C4D0D4C641BA41020
:10318C00A64209D100F022F800260A4D0A4C641B15
:10319C00A410A64205D170BD55F8043B98470136E2
:1031AC00EEE755F8043B98470136F2E71032000879
:1031BC001032000810320008143200080346024492
:1031CC00934200D1704703F8011BF9E7F8B500BF33
:1031DC00F8BC08BC9E467047F8B500BFF8BC08BCEC
:0431EC009E46704744
:1031F00002030405060708090A0B0C0D0E0F101038
:103200000000000000000000010203040607080996
:043210003101000880
:043214000D010008A0
:1032180001000000010000000100000001000000A2
:103228000100000001000000010000000100000092
:103238000100000001000000010000000100000082
:103248002C0100000A0000000E000000140000001D
:10325800180000001E000000230000000500000008
:103268000300000002000000050000000300000049
:10327800020000000500000003000000020000003A
:103288000500000003000000020000000A00000022
:0C3298000024F400100000000100000001
:0400000508001B399B
:00000001FF
